{
  "contractName": "ServiceAgreement",
  "abi": [
    {
      "anonymous": false,
      "inputs": [
        {
          "indexed": false,
          "internalType": "string",
          "name": "log",
          "type": "string"
        },
        {
          "indexed": false,
          "internalType": "string",
          "name": "date",
          "type": "string"
        }
      ],
      "name": "Executed",
      "type": "event"
    },
    {
      "constant": true,
      "inputs": [],
      "name": "job",
      "outputs": [
        {
          "internalType": "string",
          "name": "_sname",
          "type": "string"
        },
        {
          "internalType": "string",
          "name": "_scompletiondate",
          "type": "string"
        },
        {
          "internalType": "string",
          "name": "_sfinaldeliverables",
          "type": "string"
        },
        {
          "internalType": "uint256",
          "name": "_sfinalpayment",
          "type": "uint256"
        }
      ],
      "payable": false,
      "stateMutability": "view",
      "type": "function"
    },
    {
      "constant": true,
      "inputs": [],
      "name": "parties",
      "outputs": [
        {
          "internalType": "string",
          "name": "_freelancername",
          "type": "string"
        },
        {
          "internalType": "string",
          "name": "_clientname",
          "type": "string"
        }
      ],
      "payable": false,
      "stateMutability": "view",
      "type": "function"
    },
    {
      "constant": true,
      "inputs": [],
      "name": "schedule",
      "outputs": [
        {
          "internalType": "uint256",
          "name": "_frequency",
          "type": "uint256"
        }
      ],
      "payable": false,
      "stateMutability": "view",
      "type": "function"
    },
    {
      "constant": false,
      "inputs": [
        {
          "internalType": "string",
          "name": "freelancer",
          "type": "string"
        },
        {
          "internalType": "string",
          "name": "client",
          "type": "string"
        }
      ],
      "name": "defineParties",
      "outputs": [],
      "payable": false,
      "stateMutability": "nonpayable",
      "type": "function"
    },
    {
      "constant": false,
      "inputs": [
        {
          "internalType": "string",
          "name": "sname",
          "type": "string"
        },
        {
          "internalType": "string",
          "name": "scompletiondate",
          "type": "string"
        },
        {
          "internalType": "string",
          "name": "sfinaldeliverables",
          "type": "string"
        },
        {
          "internalType": "uint256",
          "name": "sfinalpayment",
          "type": "uint256"
        }
      ],
      "name": "defineJob",
      "outputs": [],
      "payable": false,
      "stateMutability": "nonpayable",
      "type": "function"
    },
    {
      "constant": false,
      "inputs": [
        {
          "internalType": "uint256",
          "name": "frequency",
          "type": "uint256"
        },
        {
          "internalType": "string[]",
          "name": "sdeliverables",
          "type": "string[]"
        },
        {
          "internalType": "uint256[]",
          "name": "spayments",
          "type": "uint256[]"
        }
      ],
      "name": "defineSchedule",
      "outputs": [],
      "payable": false,
      "stateMutability": "nonpayable",
      "type": "function"
    },
    {
      "constant": false,
      "inputs": [],
      "name": "executeAgreement",
      "outputs": [],
      "payable": false,
      "stateMutability": "nonpayable",
      "type": "function"
    }
  ],
  "bytecode": "0x608060405234801561001057600080fd5b506110e9806100206000396000f3fe608060405234801561001057600080fd5b506004361061007d5760003560e01c80639f2df2571161005b5780639f2df257146100db5780639fdb2353146100f7578063b0604a2614610116578063f9d18139146101345761007d565b806358e7ec3c14610082578063694673d9146100a35780638bf7614a146100bf575b600080fd5b61008a61013e565b60405161009a9493929190610e82565b60405180910390f35b6100bd60048036036100b89190810190610b9e565b610324565b005b6100d960048036036100d49190810190610cb5565b61035b565b005b6100f560048036036100f09190810190610c0a565b61039e565b005b6100ff6103fb565b60405161010d929190610e4b565b60405180910390f35b61011e61053d565b60405161012b9190610f11565b60405180910390f35b61013c610549565b005b6003806000018054600181600116156101000203166002900480601f0160208091040260200160405190810160405280929190818152602001828054600181600116156101000203166002900480156101d85780601f106101ad576101008083540402835291602001916101d8565b820191906000526020600020905b8154815290600101906020018083116101bb57829003601f168201915b505050505090806001018054600181600116156101000203166002900480601f0160208091040260200160405190810160405280929190818152602001828054600181600116156101000203166002900480156102765780601f1061024b57610100808354040283529160200191610276565b820191906000526020600020905b81548152906001019060200180831161025957829003601f168201915b505050505090806002018054600181600116156101000203166002900480601f0160208091040260200160405190810160405280929190818152602001828054600181600116156101000203166002900480156103145780601f106102e957610100808354040283529160200191610314565b820191906000526020600020905b8154815290600101906020018083116102f757829003601f168201915b5050505050908060030154905084565b816001600001908051906020019061033d9291906107a4565b50806001800190805190602001906103569291906107a4565b505050565b82600760000181905550816007600101908051906020019061037e929190610824565b508060076002019080519060200190610398929190610884565b50505050565b83600360000190805190602001906103b79291906107a4565b5082600360010190805190602001906103d19291906107a4565b5081600360020190805190602001906103eb9291906107a4565b5080600380018190555050505050565b6001806000018054600181600116156101000203166002900480601f0160208091040260200160405190810160405280929190818152602001828054600181600116156101000203166002900480156104955780601f1061046a57610100808354040283529160200191610495565b820191906000526020600020905b81548152906001019060200180831161047857829003601f168201915b505050505090806001018054600181600116156101000203166002900480601f0160208091040260200160405190810160405280929190818152602001828054600181600116156101000203166002900480156105335780601f1061050857610100808354040283529160200191610533565b820191906000526020600020905b81548152906001019060200180831161051657829003601f168201915b5050505050905082565b60078060000154905081565b610552426105a2565b600090805190602001906105679291906107a4565b507f0d97a9033491f569feb4c72abf12722b227eec24ee13547bec3654f8663ff71160006040516105989190610edc565b60405180910390a1565b606060006301e1853e905060006228206f9050600062015180905060008386816105c857fe5b04905060008487816105d657fe5b06905060006107b28301905060008483816105ed57fe5b04905060606000600190506000831015801561060a5750601e8311155b15610651576040518060400160405280600381526020017f4a616e00000000000000000000000000000000000000000000000000000000008152509150828101905061075e565b601f83101580156106635750603a8311155b156106ab576040518060400160405280600381526020017f46656200000000000000000000000000000000000000000000000000000000008152509150601e8303905061075d565b603b83101580156106bd575060598311155b15610705576040518060400160405280600381526020017f4d617200000000000000000000000000000000000000000000000000000000008152509150603a8303905061075c565b605a8310158015610717575060788311155b1561075b576040518060400160405280600381526020017f417072000000000000000000000000000000000000000000000000000000000081525091506059830390505b5b5b5b6040518060400160405280600b81526020017f32303232204170722030310000000000000000000000000000000000000000008152509950505050505050505050919050565b828054600181600116156101000203166002900490600052602060002090601f016020900481019282601f106107e557805160ff1916838001178555610813565b82800160010185558215610813579182015b828111156108125782518255916020019190600101906107f7565b5b50905061082091906108d1565b5090565b828054828255906000526020600020908101928215610873579160200282015b828111156108725782518290805190602001906108629291906108f6565b5091602001919060010190610844565b5b5090506108809190610976565b5090565b8280548282559060005260206000209081019282156108c0579160200282015b828111156108bf5782518255916020019190600101906108a4565b5b5090506108cd91906108d1565b5090565b6108f391905b808211156108ef5760008160009055506001016108d7565b5090565b90565b828054600181600116156101000203166002900490600052602060002090601f016020900481019282601f1061093757805160ff1916838001178555610965565b82800160010185558215610965579182015b82811115610964578251825591602001919060010190610949565b5b50905061097291906108d1565b5090565b61099f91905b8082111561099b576000818161099291906109a2565b5060010161097c565b5090565b90565b50805460018160011615610100020316600290046000825580601f106109c857506109e7565b601f0160209004906000526020600020908101906109e691906108d1565b5b50565b600082601f8301126109fb57600080fd5b8135610a0e610a0982610f59565b610f2c565b9150818183526020840193506020810190508360005b83811015610a545781358601610a3a8882610ae1565b845260208401935060208301925050600181019050610a24565b5050505092915050565b600082601f830112610a6f57600080fd5b8135610a82610a7d82610f81565b610f2c565b91508181835260208401935060208101905083856020840282011115610aa757600080fd5b60005b83811015610ad75781610abd8882610b89565b845260208401935060208301925050600181019050610aaa565b5050505092915050565b600082601f830112610af257600080fd5b8135610b05610b0082610fa9565b610f2c565b91508082526020830160208301858383011115610b2157600080fd5b610b2c83828461103c565b50505092915050565b600082601f830112610b4657600080fd5b8135610b59610b5482610fd5565b610f2c565b91508082526020830160208301858383011115610b7557600080fd5b610b8083828461103c565b50505092915050565b600081359050610b988161108f565b92915050565b60008060408385031215610bb157600080fd5b600083013567ffffffffffffffff811115610bcb57600080fd5b610bd785828601610b35565b925050602083013567ffffffffffffffff811115610bf457600080fd5b610c0085828601610b35565b9150509250929050565b60008060008060808587031215610c2057600080fd5b600085013567ffffffffffffffff811115610c3a57600080fd5b610c4687828801610b35565b945050602085013567ffffffffffffffff811115610c6357600080fd5b610c6f87828801610b35565b935050604085013567ffffffffffffffff811115610c8c57600080fd5b610c9887828801610b35565b9250506060610ca987828801610b89565b91505092959194509250565b600080600060608486031215610cca57600080fd5b6000610cd886828701610b89565b935050602084013567ffffffffffffffff811115610cf557600080fd5b610d01868287016109ea565b925050604084013567ffffffffffffffff811115610d1e57600080fd5b610d2a86828701610a5e565b9150509250925092565b6000610d3f82611016565b610d498185611021565b9350610d5981856020860161104b565b610d628161107e565b840191505092915050565b600081546001811660008114610d8a5760018114610db057610df4565b607f6002830416610d9b8187611021565b955060ff198316865260208601935050610df4565b60028204610dbe8187611021565b9550610dc985611001565b60005b82811015610deb57815481890152600182019150602081019050610dcc565b80880195505050505b505092915050565b6000610e09601783611021565b91507f2041677265656d656e74204578656375746564206f6e200000000000000000006000830152602082019050919050565b610e4581611032565b82525050565b60006040820190508181036000830152610e658185610d34565b90508181036020830152610e798184610d34565b90509392505050565b60006080820190508181036000830152610e9c8187610d34565b90508181036020830152610eb08186610d34565b90508181036040830152610ec48185610d34565b9050610ed36060830184610e3c565b95945050505050565b60006040820190508181036000830152610ef581610dfc565b90508181036020830152610f098184610d6d565b905092915050565b6000602082019050610f266000830184610e3c565b92915050565b6000604051905081810181811067ffffffffffffffff82111715610f4f57600080fd5b8060405250919050565b600067ffffffffffffffff821115610f7057600080fd5b602082029050602081019050919050565b600067ffffffffffffffff821115610f9857600080fd5b602082029050602081019050919050565b600067ffffffffffffffff821115610fc057600080fd5b601f19601f8301169050602081019050919050565b600067ffffffffffffffff821115610fec57600080fd5b601f19601f8301169050602081019050919050565b60008190508160005260206000209050919050565b600081519050919050565b600082825260208201905092915050565b6000819050919050565b82818337600083830152505050565b60005b8381101561106957808201518184015260208101905061104e565b83811115611078576000848401525b50505050565b6000601f19601f8301169050919050565b61109881611032565b81146110a357600080fd5b5056fea365627a7a7231582001f47886565fc6721dbb0dee5394d3e76bf897d29e24f54903a2c32d19a00e466c6578706572696d656e74616cf564736f6c63430005100040",
  "source": "//SPDX-License-Identifier: MIT\npragma solidity >=0.4.22 <0.9.0;\n\npragma experimental ABIEncoderV2;\n\ncontract ServiceAgreement {\n    string _dateofagreement;\n    struct ServiceParties {\n        string _freelancername;\n        string _clientname;\n    }\n\n    struct Service {\n        string _sname;\n        string _scompletiondate;\n        string _sfinaldeliverables;\n        uint256 _sfinalpayment;\n    }\n\n    struct Terms {\n        uint256 _frequency; //frequency of deliverable and payments\n        string[] _sdeliverables;\n        uint256[] _spayments;\n    }\n\n    ServiceParties public parties;\n    Service public job;\n    Terms public schedule;\n\n    function defineParties(string memory freelancer, string memory client)\n        public\n    {\n        parties._freelancername = freelancer;\n        parties._clientname = client;\n    }\n\n    function defineJob(\n        string memory sname,\n        string memory scompletiondate,\n        string memory sfinaldeliverables,\n        uint256 sfinalpayment\n    ) public {\n        job._sname = sname;\n        job._scompletiondate = scompletiondate;\n        job._sfinaldeliverables = sfinaldeliverables;\n        job._sfinalpayment = sfinalpayment;\n    }\n\n    function defineSchedule(\n        uint256 frequency,\n        string[] memory sdeliverables,\n        uint256[] memory spayments\n    ) public {\n        schedule._frequency = frequency;\n        schedule._sdeliverables = sdeliverables;\n        schedule._spayments = spayments;\n    }\n\n    event Executed(string log, string date);\n\n    function calculateDate(uint256 time) private returns (string memory) {\n        /* factors to find date from epoch time*/\n        uint256 yf = 31556926;\n        uint256 mf = 2629743;\n        uint256 df = 86400;\n\n        uint256 ydiv = time / yf;\n        uint256 ymod = time % yf;\n\n        uint256 yy = ydiv + 1970;\n\n        uint256 day = ymod / df;\n        string memory m;\n        uint256 d = 1;\n\n        if (day >= 0 && day <= 30) {\n            m = \"Jan\";\n            d += day;\n        } else if (day >= 31 && day <= 58) {\n            m = \"Feb\";\n            d = day - 30;\n        } else if (day >= 59 && day <= 89) {\n            m = \"Mar\";\n            d = day - 58;\n        } else if (day >= 90 && day <= 120) {\n            m = \"Apr\";\n            d = day - 89;\n        }\n        /*\n        concate yr m dd to find today's date\n        string memory yr=string(yy);\n        string memory dd=string(d);\n\n        string memory date = yr+m+dd; \n        //new string(yr.length + m.length + dd.length);\n       // date=yr+m+dd;\n   */\n        return \"2022 Apr 01\";\n    }\n\n    function executeAgreement() public {\n        _dateofagreement = calculateDate(block.timestamp);\n\n        /*Write to transaction to block */\n\n        // get block details\n\n        emit Executed(\" Agreement Executed on \", _dateofagreement);\n    }\n}\n",
  "sourcePath": "/home/ellika/WWC/HiringPortal/contracts/ServiceAgreement.sol",
  "compiler": {
    "name": "solc",
    "version": "0.5.16+commit.9c3226ce.Emscripten.clang"
  },
  "schemaVersion": "3.4.4",
  "updatedAt": "2022-05-14T08:19:07.642Z",
  "networkType": "ethereum",
  "devdoc": {
    "methods": {}
  },
  "userdoc": {
    "methods": {}
  }
}