{
  "contractName": "ServiceAgreement",
  "abi": [
    {
      "anonymous": false,
      "inputs": [
        {
          "indexed": false,
          "internalType": "string",
          "name": "log",
          "type": "string"
        },
        {
          "indexed": false,
          "internalType": "string",
          "name": "date",
          "type": "string"
        }
      ],
      "name": "Executed",
      "type": "event"
    },
    {
      "inputs": [],
      "name": "job",
      "outputs": [
        {
          "internalType": "string",
          "name": "_sname",
          "type": "string"
        },
        {
          "internalType": "string",
          "name": "_scompletiondate",
          "type": "string"
        },
        {
          "internalType": "string",
          "name": "_sfinaldeliverables",
          "type": "string"
        },
        {
          "internalType": "uint256",
          "name": "_sfinalpayment",
          "type": "uint256"
        }
      ],
      "stateMutability": "view",
      "type": "function",
      "constant": true
    },
    {
      "inputs": [],
      "name": "parties",
      "outputs": [
        {
          "internalType": "string",
          "name": "_freelancername",
          "type": "string"
        },
        {
          "internalType": "string",
          "name": "_clientname",
          "type": "string"
        }
      ],
      "stateMutability": "view",
      "type": "function",
      "constant": true
    },
    {
      "inputs": [],
      "name": "schedule",
      "outputs": [
        {
          "internalType": "uint256",
          "name": "_frequency",
          "type": "uint256"
        }
      ],
      "stateMutability": "view",
      "type": "function",
      "constant": true
    },
    {
      "inputs": [
        {
          "internalType": "string",
          "name": "freelancer",
          "type": "string"
        },
        {
          "internalType": "string",
          "name": "client",
          "type": "string"
        }
      ],
      "name": "defineParties",
      "outputs": [],
      "stateMutability": "nonpayable",
      "type": "function"
    },
    {
      "inputs": [
        {
          "internalType": "string",
          "name": "sname",
          "type": "string"
        },
        {
          "internalType": "string",
          "name": "scompletiondate",
          "type": "string"
        },
        {
          "internalType": "string",
          "name": "sfinaldeliverables",
          "type": "string"
        },
        {
          "internalType": "uint256",
          "name": "sfinalpayment",
          "type": "uint256"
        }
      ],
      "name": "defineJob",
      "outputs": [],
      "stateMutability": "nonpayable",
      "type": "function"
    },
    {
      "inputs": [
        {
          "internalType": "uint256",
          "name": "frequency",
          "type": "uint256"
        },
        {
          "internalType": "string[]",
          "name": "sdeliverables",
          "type": "string[]"
        },
        {
          "internalType": "uint256[]",
          "name": "spayments",
          "type": "uint256[]"
        }
      ],
      "name": "defineSchedule",
      "outputs": [],
      "stateMutability": "nonpayable",
      "type": "function"
    },
    {
      "inputs": [],
      "name": "executeAgreement",
      "outputs": [],
      "stateMutability": "nonpayable",
      "type": "function"
    }
  ],
  "bytecode": "0x608060405234801561001057600080fd5b5061126b806100206000396000f3fe608060405234801561001057600080fd5b506004361061007d5760003560e01c80639f2df2571161005b5780639f2df257146100db5780639fdb2353146100f7578063b0604a2614610116578063f9d18139146101345761007d565b806358e7ec3c14610082578063694673d9146100a35780638bf7614a146100bf575b600080fd5b61008a61013e565b60405161009a94939291906109ed565b60405180910390f35b6100bd60048036038101906100b89190610b90565b6102f4565b005b6100d960048036038101906100d49190610ddd565b61032b565b005b6100f560048036038101906100f09190610e68565b61036e565b005b6100ff6103cb565b60405161010d929190610f23565b60405180910390f35b61011e6104ed565b60405161012b9190610f5a565b60405180910390f35b61013c6104f9565b005b600380600001805461014f90610fa4565b80601f016020809104026020016040519081016040528092919081815260200182805461017b90610fa4565b80156101c85780601f1061019d576101008083540402835291602001916101c8565b820191906000526020600020905b8154815290600101906020018083116101ab57829003601f168201915b5050505050908060010180546101dd90610fa4565b80601f016020809104026020016040519081016040528092919081815260200182805461020990610fa4565b80156102565780601f1061022b57610100808354040283529160200191610256565b820191906000526020600020905b81548152906001019060200180831161023957829003601f168201915b50505050509080600201805461026b90610fa4565b80601f016020809104026020016040519081016040528092919081815260200182805461029790610fa4565b80156102e45780601f106102b9576101008083540402835291602001916102e4565b820191906000526020600020905b8154815290600101906020018083116102c757829003601f168201915b5050505050908060030154905084565b816001600001908051906020019061030d929190610787565b5080600180019080519060200190610326929190610787565b505050565b82600760000181905550816007600101908051906020019061034e92919061080d565b50806007600201908051906020019061036892919061086d565b50505050565b8360036000019080519060200190610387929190610787565b5082600360010190805190602001906103a1929190610787565b5081600360020190805190602001906103bb929190610787565b5080600380018190555050505050565b60018060000180546103dc90610fa4565b80601f016020809104026020016040519081016040528092919081815260200182805461040890610fa4565b80156104555780601f1061042a57610100808354040283529160200191610455565b820191906000526020600020905b81548152906001019060200180831161043857829003601f168201915b50505050509080600101805461046a90610fa4565b80601f016020809104026020016040519081016040528092919081815260200182805461049690610fa4565b80156104e35780601f106104b8576101008083540402835291602001916104e3565b820191906000526020600020905b8154815290600101906020018083116104c657829003601f168201915b5050505050905082565b60078060000154905081565b61050242610552565b60009080519060200190610517929190610787565b507f0d97a9033491f569feb4c72abf12722b227eec24ee13547bec3654f8663ff711600060405161054891906110b6565b60405180910390a1565b606060006301e1853e905060006228206f905060006201518090506000838661057b9190611149565b90506000848761058b919061117a565b905060006107b28361059d91906111ab565b9050600084836105ad9190611149565b90506060600060019050600083101580156105c95750601e8311155b15610619576040518060400160405280600381526020017f4a616e00000000000000000000000000000000000000000000000000000000008152509150828161061291906111ab565b9050610741565b601f831015801561062b5750603a8311155b1561067c576040518060400160405280600381526020017f46656200000000000000000000000000000000000000000000000000000000008152509150601e836106759190611201565b9050610740565b603b831015801561068e575060598311155b156106df576040518060400160405280600381526020017f4d617200000000000000000000000000000000000000000000000000000000008152509150603a836106d89190611201565b905061073f565b605a83101580156106f1575060788311155b1561073e576040518060400160405280600381526020017f4170720000000000000000000000000000000000000000000000000000000000815250915060598361073b9190611201565b90505b5b5b5b6040518060400160405280600b81526020017f32303232204170722030310000000000000000000000000000000000000000008152509950505050505050505050919050565b82805461079390610fa4565b90600052602060002090601f0160209004810192826107b557600085556107fc565b82601f106107ce57805160ff19168380011785556107fc565b828001600101855582156107fc579182015b828111156107fb5782518255916020019190600101906107e0565b5b50905061080991906108ba565b5090565b82805482825590600052602060002090810192821561085c579160200282015b8281111561085b57825182908051906020019061084b929190610787565b509160200191906001019061082d565b5b50905061086991906108d7565b5090565b8280548282559060005260206000209081019282156108a9579160200282015b828111156108a857825182559160200191906001019061088d565b5b5090506108b691906108ba565b5090565b5b808211156108d35760008160009055506001016108bb565b5090565b5b808211156108f757600081816108ee91906108fb565b506001016108d8565b5090565b50805461090790610fa4565b6000825580601f106109195750610938565b601f01602090049060005260206000209081019061093791906108ba565b5b50565b600081519050919050565b600082825260208201905092915050565b60005b8381101561097557808201518184015260208101905061095a565b83811115610984576000848401525b50505050565b6000601f19601f8301169050919050565b60006109a68261093b565b6109b08185610946565b93506109c0818560208601610957565b6109c98161098a565b840191505092915050565b6000819050919050565b6109e7816109d4565b82525050565b60006080820190508181036000830152610a07818761099b565b90508181036020830152610a1b818661099b565b90508181036040830152610a2f818561099b565b9050610a3e60608301846109de565b95945050505050565b6000604051905090565b600080fd5b600080fd5b600080fd5b600080fd5b7f4e487b7100000000000000000000000000000000000000000000000000000000600052604160045260246000fd5b610a9d8261098a565b810181811067ffffffffffffffff82111715610abc57610abb610a65565b5b80604052505050565b6000610acf610a47565b9050610adb8282610a94565b919050565b600067ffffffffffffffff821115610afb57610afa610a65565b5b610b048261098a565b9050602081019050919050565b82818337600083830152505050565b6000610b33610b2e84610ae0565b610ac5565b905082815260208101848484011115610b4f57610b4e610a60565b5b610b5a848285610b11565b509392505050565b600082601f830112610b7757610b76610a5b565b5b8135610b87848260208601610b20565b91505092915050565b60008060408385031215610ba757610ba6610a51565b5b600083013567ffffffffffffffff811115610bc557610bc4610a56565b5b610bd185828601610b62565b925050602083013567ffffffffffffffff811115610bf257610bf1610a56565b5b610bfe85828601610b62565b9150509250929050565b610c11816109d4565b8114610c1c57600080fd5b50565b600081359050610c2e81610c08565b92915050565b600067ffffffffffffffff821115610c4f57610c4e610a65565b5b602082029050602081019050919050565b600080fd5b6000610c78610c7384610c34565b610ac5565b90508083825260208201905060208402830185811115610c9b57610c9a610c60565b5b835b81811015610ce257803567ffffffffffffffff811115610cc057610cbf610a5b565b5b808601610ccd8982610b62565b85526020850194505050602081019050610c9d565b5050509392505050565b600082601f830112610d0157610d00610a5b565b5b8135610d11848260208601610c65565b91505092915050565b600067ffffffffffffffff821115610d3557610d34610a65565b5b602082029050602081019050919050565b6000610d59610d5484610d1a565b610ac5565b90508083825260208201905060208402830185811115610d7c57610d7b610c60565b5b835b81811015610da55780610d918882610c1f565b845260208401935050602081019050610d7e565b5050509392505050565b600082601f830112610dc457610dc3610a5b565b5b8135610dd4848260208601610d46565b91505092915050565b600080600060608486031215610df657610df5610a51565b5b6000610e0486828701610c1f565b935050602084013567ffffffffffffffff811115610e2557610e24610a56565b5b610e3186828701610cec565b925050604084013567ffffffffffffffff811115610e5257610e51610a56565b5b610e5e86828701610daf565b9150509250925092565b60008060008060808587031215610e8257610e81610a51565b5b600085013567ffffffffffffffff811115610ea057610e9f610a56565b5b610eac87828801610b62565b945050602085013567ffffffffffffffff811115610ecd57610ecc610a56565b5b610ed987828801610b62565b935050604085013567ffffffffffffffff811115610efa57610ef9610a56565b5b610f0687828801610b62565b9250506060610f1787828801610c1f565b91505092959194509250565b60006040820190508181036000830152610f3d818561099b565b90508181036020830152610f51818461099b565b90509392505050565b6000602082019050610f6f60008301846109de565b92915050565b7f4e487b7100000000000000000000000000000000000000000000000000000000600052602260045260246000fd5b60006002820490506001821680610fbc57607f821691505b602082108103610fcf57610fce610f75565b5b50919050565b7f2041677265656d656e74204578656375746564206f6e20000000000000000000600082015250565b600061100b601783610946565b915061101682610fd5565b602082019050919050565b60008190508160005260206000209050919050565b6000815461104381610fa4565b61104d8186610946565b94506001821660008114611068576001811461107a576110ad565b60ff19831686526020860193506110ad565b61108385611021565b60005b838110156110a557815481890152600182019150602081019050611086565b808801955050505b50505092915050565b600060408201905081810360008301526110cf81610ffe565b905081810360208301526110e38184611036565b905092915050565b7f4e487b7100000000000000000000000000000000000000000000000000000000600052601260045260246000fd5b7f4e487b7100000000000000000000000000000000000000000000000000000000600052601160045260246000fd5b6000611154826109d4565b915061115f836109d4565b92508261116f5761116e6110eb565b5b828204905092915050565b6000611185826109d4565b9150611190836109d4565b9250826111a05761119f6110eb565b5b828206905092915050565b60006111b6826109d4565b91506111c1836109d4565b9250827fffffffffffffffffffffffffffffffffffffffffffffffffffffffffffffffff038211156111f6576111f561111a565b5b828201905092915050565b600061120c826109d4565b9150611217836109d4565b92508282101561122a5761122961111a565b5b82820390509291505056fea2646970667358221220df5bae40b26ade8ee455f82f9d4e5051a57aea0e5a65a653b440b27440cc287e64736f6c634300080d0033",
  "immutableReferences": {},
  "source": "//SPDX-License-Identifier: MIT \npragma solidity ^0.8.10;\npragma experimental ABIEncoderV2;\n\ncontract ServiceAgreement\n{\n    string _dateofagreement;\n    struct ServiceParties\n    {\n        string _freelancername;\n        string _clientname;\n    } \n\n    struct Service\n    {\n        string _sname;\n        string _scompletiondate;\n        string _sfinaldeliverables;\n        uint  _sfinalpayment;\n    }\n\n    struct Terms\n    {\n        uint _frequency;            //frequency of deliverable and payments\n        string[]  _sdeliverables;\n        uint[]  _spayments; \n    }\n\n    ServiceParties public parties;\n    Service public job;\n    Terms public schedule;\n\n    function defineParties(string memory freelancer, string memory client) public\n    {\n        parties._freelancername=freelancer;\n        parties._clientname=client;\n    }\n\n    function defineJob(string memory sname, string memory scompletiondate, string  memory sfinaldeliverables, uint sfinalpayment) public\n    {\n        job._sname=sname;\n        job._scompletiondate=scompletiondate;\n        job._sfinaldeliverables=sfinaldeliverables;\n        job._sfinalpayment=sfinalpayment;\n    }\n\n    function defineSchedule( uint frequency, string[] memory sdeliverables, uint[] memory spayments) public\n    {\n        schedule._frequency=frequency;\n        schedule._sdeliverables=sdeliverables;\n        schedule._spayments=spayments;\n    }\n\n    event Executed(string  log,string date);\n\n    function calculateDate(uint time) private returns(string memory)\n    {\n        /* factors to find date from epoch time*/\n        uint yf=31556926 ;  \n        uint mf=2629743;\n        uint df=86400;\n\n        uint ydiv=time/yf;\n        uint ymod=time%yf;\n\n        uint yy=ydiv+1970;\n\n        uint day=ymod/df; \n        string memory m;\n        uint d=1;\n\n        if(day>=0 && day<=30){\n            m=\"Jan\";\n            d+=day;\n        }\n        else if (day>=31 && day<=58){\n            m=\"Feb\";\n            d=day-30;\n        }\n         else if (day>=59 && day<=89){\n            m=\"Mar\";\n            d=day-58;\n        }\n         else if (day>=90 && day<=120){\n            m=\"Apr\";\n            d=day-89;\n        }\n        /*\n        concate yr m dd to find today's date\n        string memory yr=string(yy);\n        string memory dd=string(d);\n\n        string memory date = yr+m+dd; \n        //new string(yr.length + m.length + dd.length);\n       // date=yr+m+dd;\n   */\n        return \"2022 Apr 01\";\n\n\n    }\n    function executeAgreement() public\n    {\n        _dateofagreement=calculateDate(block.timestamp);\n    \n\n        /*Write to transaction to block */\n\n        // get block details\n\n\n        emit Executed(\" Agreement Executed on \",_dateofagreement);\n    }\n\n}",
  "sourcePath": "/home/ellika/WWC/HiringPortal/contracts/ServiceAgreement.sol",
  "compiler": {
    "name": "solc",
    "version": "0.8.13+commit.abaa5c0e.Emscripten.clang"
  },
  "schemaVersion": "3.4.4",
  "updatedAt": "2022-04-23T08:08:19.681Z",
  "networkType": "ethereum",
  "devdoc": {
    "kind": "dev",
    "methods": {},
    "version": 1
  },
  "userdoc": {
    "kind": "user",
    "methods": {},
    "version": 1
  }
}